:03000000020800F3
:0C080000787FE4F6D8FD758111020847EE
:0E08D80005080102040810050D80F6F6F6F082
:1008B800E4FDFCC3ED9FEC9E5015E4FBFA0BBB0076
:0F08C800010ABA01F8BBF4F50DBD00010C80E484
:0108D70022FE
:10088C00E4F5A0F5B0900000AF8274082FF8E6F5FF
:10089C00A0AF82740D2FF8E6F5B07F017E00120830
:0C08AC00B8A3E5826405458370DE80D9A6
:10080C0002088CE493A3F8E493A34003F68001F26E
:10081C0008DFF48029E493A3F85407240CC8C333ED
:10082C00C4540F4420C8834004F456800146F6DFBC
:10083C00E4800B01020408102040809008D8E47E6C
:10084C00019360BCA3FF543F30E509541FFEE493B1
:10085C00A360010ECF54C025E060A840B8E493A378
:10086C00FAE493A3F8E493A3C8C582C8CAC583CAA3
:10087C00F0A3C8C582C8CAC583CADFE9DEE780BE5B
:0108E6000011
:00000001FF
