:0A0A3F003F065B4F666D7D077F6F79
:100A01007C007D0A1208F674082DF8E6F5A07F3CFB
:020A11007E0065
:100A1300E4FDFCC3ED9FEC9E5015E4FBFA0BBB0019
:0F0A2300010AEB64644A70F50DBD00010C80E41C
:010A320022A1
:1009810078087C007D007BFF7A0A793F7E007F0A30
:100991001208D0751263E4F513F514AF12EF339515
:1009A100E0FED3E5149FEE6480F8E513648098506F
:1009B100E5E4F513F5147FC87E00120A13740825C7
:1009C10012F8E6F5A0D2B0C2B1AE13AF14120A010B
:1009D100D2B1C2B0AE13AF147C007D0A12094B1222
:1009E1000A010514E51470020513C394E8E51364C4
:1009F10080948340C10514E5147002051302099C1B
:03000000020A33BE
:0C0A3300787FE4F6D8FD7581140209817B
:10080000E709F608DFFA8046E709F208DFFA803EDA
:1008100088828C83E709F0A3DFFA8032E309F608C7
:10082000DFFA8078E309F208DFFA807088828C832F
:10083000E309F0A3DFFA806489828A83E0A3F608E3
:10084000DFFA805889828A83E0A3F208DFFA804CBD
:1008500080D280FA80C680D4806980F28033801094
:1008600080A680EA809A80A880DA80E280CA8033FD
:1008700089828A83ECFAE493A3C8C582C8CCC58375
:10088000CCF0A3C8C582C8CCC583CCDFE9DEE78045
:100890000D89828A83E493A3F608DFF9ECFAA9F0C4
:1008A000EDFB2289828A83ECFAE0A3C8C582C8CC1A
:1008B000C583CCF0A3C8C582C8CCC583CCDFEADE33
:1008C000E880DB89828A83E493A3F208DFF980CC95
:1008D00088F0EF60010E4E60C388F0ED2402B4048E
:1008E0000050B9F582EB2402B4040050AF23234535
:0608F00082239008507302
:1008F600BC000BBE0029EF8DF084FFADF022E4CCE6
:10090600F875F008EF2FFFEE33FEEC33FCEE9DECAE
:10091600984005FCEE9DFE0FD5F0E9E4CEFD22EDF4
:10092600F8F5F0EE8420D21CFEADF075F008EF2F3E
:10093600FFED33FD4007985006D5F0F222C398FD2F
:050946000FD5F0EA22CC
:10094B00C2D5EC30E709B2D5E4C39DFDE49CFCEEC7
:10095B0030E715B2D5E4C39FFFE49EFE1208F6C341
:10096B00E49DFDE49CFC80031208F630D507C3E43C
:06097B009FFFE49EFE2236
:00000001FF
