:1008CF0005170102040810050D81EEEEEE810508F3
:0C08DF00B0B6B6B686051280F6E6D6B0BC
:1008B200E4FFFEE4FDFC0DBD00010CBC01F8BDF43B
:0C08C200F50FBF00010EEF64014E70E75F
:0108CE002207
:10088C00E4F5A0F5B0E4FBFA74172BF8E6F5A074C8
:10089C00122BF8E6F5B01208B20BBB00010AEB64A0
:0608AC00054A70E480DF44
:03000000020800F3
:0C080000787FE4F6D8FD75811B020847E4
:10080C0002088CE493A3F8E493A34003F68001F26E
:10081C0008DFF48029E493A3F85407240CC8C333ED
:10082C00C4540F4420C8834004F456800146F6DFBC
:10083C00E4800B01020408102040809008CFE47E75
:10084C00019360BCA3FF543F30E509541FFEE493B1
:10085C00A360010ECF54C025E060A840B8E493A378
:10086C00FAE493A3F8E493A3C8C582C8CAC583CAA3
:10087C00F0A3C8C582C8CAC583CADFE9DEE780BE5B
:0108EB00000C
:00000001FF
